:020000040000FA
:10000000021C38022003FFFFFFFFFF02200BFFFF4F
:10001000FFFFFF022013FFFFFFFFFF02201BFFFF78
:10002000FFFFFF022023FFFFFFFFFF02202BFFFF48
:10003000FFFFFF02130CFFFFFFFFFF02203BFFFF4C
:10004000FFFFFF022043FFFFFFFFFF02204BFFFFE8
:10005000FFFFFF022053FFFFFFFFFF02205BFFFFB8
:10006000FFFFFF022063FFFFFFFFFF02206BFFFF88
:10007000FFFFFF022073FFFFFFFFFF02207BFFFF58
:10008000FFFFFF022083FFFFFFFFFF02208B002006
:10009000000090200000932000000100000000C834
:1000A00003000000000000000400FFFFFFFF00C28B
:1000B0000100000026000403090424035400650025
:1000C000780061007300200049006E007300740026
:1000D000720075006D0065006E00740073002403EB
:1000E0005400490020004300430032003500330033
:1000F000310020005500530042002000430044001E
:10010000430000033000310032003300340035007A
:10011000360037003800390030003100320033003B
:1001200034003500360037003800390008195D19F1
:100130005D195D195D19651974F71218499005B8B4
:10014000E07002A3E0701C9005BA12051474FF5908
:10015000FBE47001EB700C9005BCE064027002A33C
:10016000E06005740402021D9005B6E0121A438097
:1001700002630179019E01AE01E870E79005B0E0ED
:1001800060047801800278009005BEE8F0A3E4F0F6
:100190009005AFE060679005BEE04402805B90058B
:1001A0009DE0640470BD9005BEE4F0A3804EE85469
:1001B0007FF50890059DE0640470A8E508C39406E7
:1001C00050A1E508249DF582E43405F583E85480C8
:1001D0006010A3A3A3A3A3A3A3E0640370157801F5
:1001E0008013E582240CF582E5833400F583E06416
:1001F0000360EB78009005BEE8F0A3E4F09005A45E
:10020000E06404601C9005B174BEF0A37405F0A313
:10021000E4F09005B47402F0A3E4F074019005A436
:10022000F07F02021A0B74F71218499005BCE070B7
:1002300002A3E0701290059DE0640460129005BA7C
:10024000E07002A3E0600874049005A40203069025
:1002500005B6E0541F121A430002470262026A0206
:1002600084029005B8E0640160057900020309E9A1
:100270009005AFF060047905800279067A001218C3
:10028000470203079005BAE0547FFA9005B8E07082
:10029000D9EAC3940650B0EA90620EF0249DFCE4C3
:1002A0003405FD9005BAE05480602FE960047B10AE
:1002B00080027B40EB906211F0E960047B038002D6
:1002C0007B00EB8C828D83A3A3A3A3A3A3A3F0E95C
:1002D00060047908802979078025E960047B208003
:1002E000027B80EB906214F0E960047B0380027B68
:1002F00000120669EBF0E96004790A8002790912BC
:100300001847E490620EF07901020221790012028E
:1003100026E97003121836227901120226E97003C9
:1003200012184522C082C0839005BAE07002A3E093
:10033000701E9005BCE07002A3E070149005B81226
:100340000514748058FA74FF59FBEA7001EB6007DA
:1003500074049005A4801EE8906200F09005B8E057
:1003600090059D6009E06402700C74038007E064EE
:100370000370037402F0D083D0822274F312184900
:100380009005B8E0FAA3E0121A430102ED039403CA
:10039000A703D7031213AB1204EF121B2B9005B463
:1003A000F0A3E4F00204AB79001213C51204EFE9E4
:1003B00024020909EA3400FA121B2BFC1919E0FA8D
:1003C000E92403090909EA3400FA121B2BF9EC901D
:1003D00005B4F0A3E980CCEAF912142E9005B1EA35
:1003E000F0A3EBF0A3E41205007B0080AD9005B113
:1003F000E4F0A3F0A3F0F50B900662E0FAA3E0FBB3
:1004000002048575090074037808121BF7EA2508B1
:10041000F8EB3509F99005B812050AE493C0E0EF4E
:10042000FCD0E06C705DA3E4936E70579005BA1237
:10043000050AA3A3E493C0E0EFFCD0E06C7044880D
:10044000828983A3A3A3E4936E703888828983A3EF
:10045000A3A3A3E493F508740193F5099005B1E50E
:1004600008F0A3E509F0A37480F088828983A3A330
:10047000A3A3A3A3E493F8740193F99005B4E8F05F
:10048000A3E9F0050B850B08900664120514E8C378
:100490009AF50CE99BF50D7403780C121C29C3E541
:1004A00008950CE4950D50030204039005B1E0FC9F
:1004B000A3E0FDA3E0FEEC4D4E7004740480279091
:1004C00005A4E0640460239005BCE0FAA3E0FB907F
:1004D00005B4120514C3EA98EB9950089005B4EAE4
:1004E000F0A3EBF074019005A4F07F06021A0B90C4
:1004F00005B1EAF0A3EBF0A374801205007B802223
:10050000F09005B1E0F9A3E0FA22E0FEA3E0FF8855
:1005100082898322E0F8A3E0F92274EE121849EAF6
:100520002404F8EB3400F9880889098882F583E40B
:10053000936026900666120514E8FEE98007EE2413
:1005400004FEEF3400FF8E828F83E493F8740193EE
:10055000F9EA687002EB6970E5750C0080397490F7
:10056000906214F074101206747003750D408E8240
:100570008F83A3A3A3E49355106006E50DD2E0F5A5
:100580000DE50D906215F0EA906213F0120669E431
:10059000F090620EF0050C850882850983E493FAD9
:1005A000E50CC39A40030206647A007905121335FC
:1005B0008A0EEA7001EB60DDEA2402F8EB3400F900
:1005C000880A890B8882F583E493540FF5129062B0
:1005D0000EF0750D008A828B83A3A3A3A3E493245A
:1005E00007F510A3E4933400F51174037810121C7E
:1005F00029AA10851210E510249DF8E43405F9E8C5
:10060000FCE9FD751001751100E5127810121BF759
:10061000E50E2403F8EB3400F9850A82850B83E4A8
:1006200093A2E7400302055E7448906211F07408DB
:100630001206747003750D408E828F83A3A3E4931A
:1006400055106006E50DD2E0F50DE50D906212F053
:10065000EA906210F0E48C828D83A3A3A3A3A3A3EA
:10066000A30205907F0B021A0BEC240CF582ED34EB
:1006700000F58322F088828983E493540364012285
:10068000C082C0839005B8E07002A3E070169005A8
:10069000BAE07002A3E0700C9005BCE06401700247
:1006A000A3E060047404800C9005B1749EF0A37400
:1006B000051207D99005A4F002037674F3121849C5
:1006C00090059DE06402601F9005BAE07002A3E00F
:1006D00070159005BCE07002A3E0700B9005B9E0C6
:1006E000F9E47001E9600974049005A4F00207843C
:1006F0007A0079011218479005B8E060727A00F923
:100700001213C58A088B09EA7001EB605A740490D1
:10071000059DF09005B8E090059EF0750A008508EB
:1007200082850983A3A3A3A3E493FAE50AC39A509D
:100730004C850A0CE50C249FF8E43405F9E8FEE941
:10074000FFE48E828F83F07A0079041213358A8257
:100750008B83A3A3A3E493FC8E828F83E06C70E76A
:1007600012051A050A80B774049005A4F0800E9053
:10077000059EF0740390059DF0F9120F6A7A0079D6
:10078000021218470204EA74F612184990059DE017
:100790006404701E9005B6E0648170169005B8E0A0
:1007A0007002A3E0700C9005BCE064017002A3E04D
:1007B00060047404801A9005BAE0249FF508A3E051
:1007C0003405F5099005B1E508F0A3E5091207D94C
:1007D0009005A4F07F03021A0BF0A3E4F09005B497
:1007E0007401F0A3E4F074012274F7121849900523
:1007F0009DE0640470129005B6E06401700A9005F3
:10080000BCE07002A3E0600874049005A4F0805876
:100810009005B8E0FB9005BAE0FA90059EE0F91269
:1008200013FA8A088B09A808A909E8FEE9FFE8700D
:1008300001E960D49005BAE0FA79031218479005EF
:10084000B8E0C0E09005BAE0249FF8A3E03405F9D1
:1008500088828983D0E0F0EEFAEFFB12051A90054A
:10086000BAE0FA790412184702022174F812184902
:1008700074FF121BA47E008033900384E0FA851875
:1008800082851983E06A700D900382E0644D7005E3
:10089000120ABBE9FEE4900385F0900387F0851807
:1008A00082851983E0FA900384E06AF07901851863
:1008B00082851983AA82AB831210CEE970030209E4
:1008C00056E0C0E0900387E0F8900385E028F8E464
:1008D0003400120C4CD0E0F0900387E0121A430071
:1008E000059E08EF08FE081A092A094009790885BB
:1008F0001882851983E064FE70A47401809CE490E2
:100900000384F0851882851983E0900386F0C394F0
:10091000804003E480847402808085188285198376
:10092000E0900382F0740302089A85188285198387
:10093000E0900383F0900386E06016740402089A46
:10094000900385E004F0FA900386E06A60030208F1
:100950009E740502089AEEF97401121B457F01028C
:100960001A0B74ED12184974FB121BA47508047558
:1009700009007808121BBE7402121C63120C581274
:100980001B45851882E064FF7004A3E064FF600DDE
:10099000851882851983E07002A3E07003020AAF14
:1009A000120C68121C63E0687003A3E06970030214
:1009B0000A7E7508009005C07810121C47800A90C6
:1009C00005C47810121BCF604D750A01750B0078B5
:1009D0000A121BBE7406121C63AC82AD8385100A1A
:1009E00085110B74FF550AFA7407550BFB8A0C85A9
:1009F000110D85120E85130F740B780C121B5FA955
:100A00000C120C62121B45E0F9AA08AB09120C7615
:100A10008A088B0980089005C87810121C47900539
:100A2000CC7810121BE49005D0780C121C47780C7F
:100A30007910121C0A40887900120C767900120C89
:100A4000767402121C63EAF0A3EBF07508017509D5
:100A5000007808121BBE7402121C63AC82AD837A4C
:100A6000247B081215B37402121B4575080478081C
:100A7000121BBE7402121C63120C58121B45120C7E
:100A800068121C63E0687003A3E069702285188215
:100A9000851983E064FF7004A3E064FF601185188A
:100AA00082851983E07002A3E060047901800279F5
:100AB000007405121B457F0C021A0B74F3121849BF
:100AC00074FC121BA4900306E0FA900307E0F9EA15
:100AD000F8E428FE740839FF750A017509007508E5
:100AE000008E0C8F0D7409780C121C29A90C74FF50
:100AF0005EF50C74015FF50D900383E0121A43015B
:100B000002F40B090B310B730BEA7002E50D700355
:100B1000121625750C10750D00780C121BBE7C0882
:100B20007D03EEFAEFFB1215B37402121B45020BA4
:100B3000F4E9C394794006750901020BF4750A4083
:100B4000750B00780A121BBE7C097D037402780CB9
:100B5000121BF7AA0CAB0D120C62121B4590030777
:100B6000E0900308F0900306E0900307F0750A4355
:100B7000020BF4750C04750D00780C121BBE740288
:100B8000121C63120C58121B457402121C63E0F80D
:100B9000A3E0F9851882851983E0687003A3E069F2
:100BA000603B120C68121C63E8F0A3E9F0750C01BD
:100BB000780C121BBE7402121C63AC82AD837A24C3
:100BC0007B081215B37402121B45750C04780C12C5
:100BD0001BBE7402121C63120C58121B45120C68C7
:100BE000121C63E0687003A3E0697005750801805A
:100BF00003750907900305E0D2E7F0E509900306C5
:100C0000F0E50A900303F0744D650AF509740425B4
:100C10000AFB7A038004E062090AEAF83395E012DD
:100C20000C4C8B0AC3E8950AE99400A2D265D03334
:100C300040E4E509F074012AF97A027B0312110FEE
:100C4000A9087404121B457F06021A0BF9E8240256
:100C5000F582E93403F58322AC82AD837A907B0080
:100C6000790412152A740222851882851983E0F806
:100C7000A3E0F9740222EEC0E07E0874805BFDE41C
:100C80007001ED6004D2F08002C2F0A2F0E492E0C4
:100C9000FCEAC333FAEB33FBE9A2E7500474014AE0
:100CA000FAEC600874216AFA74106BFBE9C333F93B
:100CB0001EEE70C7D0E0FE22C082C0837A007901A8
:100CC0001213C58A828B83A3A3A3A3A3A3A3E49334
:100CD000A2E6500474018001E49005B0F0E49005B0
:100CE000AFF0740390620FF0E0A2E750FB90620B4C
:100CF000E0D2E1F0D083D08222C082C0837402901F
:100D0000059DF0E490059EF09005A4F07903120F84
:100D10006A75210075220080DB74F5121849906213
:100D20000EE0FEE4F0906211E0FFA2E4501F748038
:100D3000F074079005A4F0E5217002E522600985B2
:100D40002182852283121C75E49005A4F0EFA2E2B3
:100D5000500CE4906211F09005A4F0020DE69005AD
:100D6000A4E0FA74026A7067906216E0F5089005D4
:100D7000B1121A79A9087A207B62120FA4740312A7
:100D80001B4585080A9005B4120F4B120F3E25082B
:100D9000120F56E07002A3E060047A4080027A48A5
:100DA000EA906211F09005B4E07002A3E07016E5DD
:100DB000217002E5226009852182852283121C753B
:100DC000E49005A4F0EE90620EF07F04021A0B741A
:100DD000066A7009852182852283121C759005A4FC
:100DE000E06003020ECFEFA2E050DA7508B6750995
:100DF00005750A007808121BBA79087A207B6212FE
:100E00000FA47403121B457521007522009005B6CE
:100E1000E054E0121AA60006002C0E20A80E409204
:100E20000E80670EA0B30EC09D0E5F0E9005B7E05A
:100E3000121AA6000501500E034B0E05460E095569
:100E40000E0B5A0E5F0E1203248071120318806C71
:100E500012030C80671206BB80621207E9805D7482
:100E6000049005A4F0805D9005B7E0121AA6000476
:100E7000007E0E06830E08880E0A8D0E5F0E12018C
:100E800038803912037B8034120680802F12078746
:100E9000802A752132752218121832801F7521346C
:100EA00075221812183480147521C875221712176C
:100EB000C880097521FA7522171217FA9005A4E067
:100EC000640470047A6080027A40EA906211F090C3
:100ED00005A4E0FA74016A70517F029005B4E0F84D
:100EE000A3E0F9C3E89420E994005007E8F5087FEF
:100EF0000A80037508209005B1121A79A9087A2092
:100F00007B62120FCB7403121B4585080A120F3E39
:100F1000250A120F56120F4BEF906211F0E508C32D
:100F200094204003020DC5020DAF74056A600302F0
:100F30000DC5852182852283121C75020DC5900581
:100F4000B1E0F9A3E0FAA3E0FBE922C3E0950AF0DF
:100F5000A3E09400F022F9EA3400FA9005B1E9F038
:100F6000A3EAF0A3EBF09005B42274F71218497AC3
:100F7000008A08E50824A5F582E43405F583E9F044
:100F80000AEAC3940540EA7A008A08E50824AAF52B
:100F900082E43405F583E9F00AEAC3940540EA7F68
:100FA00002021A0B74F6121849EAFCEBFDE9FE7412
:100FB0000A121C63120FFA600D8C828D83E0121BE3
:100FC00078120FEF70F37F03021A0B74F6121849B0
:100FD000EAFCEBFDE9FE740A121C63120FFA600DC5
:100FE000121B2B8C828D83F0120FEF70F380D7E9E8
:100FF000240109EA3400FA1EEE22E0F508A3E0F528
:1010000009A3E0A908AA09FBEE22C082C083A82395
:10101000E854046009782374FB56F6120CF9A823EF
:10102000E854106009782374EF56F6120D19A823BE
:10103000E8A2E05006782374FC56F690620EE0FABF
:101040007404F0906214E0A2E05036A2AFE492E0A3
:10105000FBC2AF906216E0FC906217E0EBA2E09258
:10106000AF8015906228E0C0E0900391121104D087
:10107000E0F0900391E004F0EC1C70E7E49062145F
:10108000F0EA90620EF0E0FC7404F0906211E0A2CD
:10109000E04031900493E0FA900492E06A60257A8F
:1010A0004090049212113EE0906228F0900492E089
:1010B00004F0FB900493E06B60041AEA70E374019F
:1010C000906211F0EC90620EF0D083D0822274F81E
:1010D000121849E9FC79008015900390121104E080
:1010E0008A828B83F0900390E004121133099003FD
:1010F00090E0FD900391E06D6005E9C39C40DA7FCC
:1011000001021A0BE02492F582E43403F58322C035
:1011100082C08380188A828B83E0C0E0900493129F
:10112000113ED0E0121133900493E004F0E91970FD
:10113000E48096F08A828B83A3AA82AB8322E02488
:1011400094F582E43404F583221211F6120962E95F
:10115000602B12127CE9602575AC00759A0053F47F
:10116000FEC29043FE01E490620FF0E0A2E740FB74
:10117000022000C2AF75C9AB75C95B80FE9005D473
:10118000780C121C47794E1211E0D2AF850D0990F0
:1011900005CC780C121BE474405509F9E47001E9A0
:1011A000600AA2805004C2808002D28012100A120B
:1011B000086BE960D7C280D2919005D87808121CDC
:1011C0004712100A9005DC7808121BE49005D478C9
:1011D00008121BCF70EBC2AF75C9AB75C95B80FE3F
:1011E0007A1075B60FE5B4A2E750FAE5BBC3994093
:1011F000F11AEA70ED2274F512184953BEFBE59D11
:10120000A2E650FA0078F8790100E824FF18E934E2
:10121000FFF9E87001E970F175C6807480659E7011
:10122000FA43BE047408906270F0D28043FD01C29C
:101230009143FE02794A1211E074F5900001F074B6
:1012400003F5D575D4889005E07808121C47900501
:10125000947808121C1AE4900598F0900599F0749F
:101260000890059AF0120CB87AFF7BFF12163C53D7
:10127000F4FED29043FE017F04021A0B74F112189F
:101280004974FF121BA49005E4780C121C477E00E1
:10129000D2AF8004C291C28012100A7901851882EF
:1012A000851983AA82AB831210CEE96012E064F83C
:1012B0006034E0640770089005D4780C121C47A2D3
:1012C000925023A293501E850C08850D09850E0AA5
:1012D000850F0B9005DC780C121BE49005D4780880
:1012E000121BCF70130EC2AFD280C291EEF97401FF
:1012F000121B457F08021A0B850D0974205509F948
:10130000E47001E9708ED280D291808CC0E074F2DA
:101310001218A9900001E064CD7005122033800BF3
:10132000E064F570051216878001007F010219BB89
:10133000D083D0822274F8121849E9FCEAFD7A00C1
:101340007B0080081890059CE012139090059BE0AC
:10135000F8A3E0F9900660E0687003A3E069602BF1
:1013600090059BE0240108A3E03400F9888289837A
:10137000E4936C700E90059BE0FAA3E0FB18121347
:10138000908008E4936D70BCED60B97F01021A0B88
:10139000F5838882E493F890059BE028F8A3E03475
:1013A00000F990059BE8F0A3E9F022C082C0831207
:1013B00013BC7A00790112133502133090065EE0F7
:1013C000F8A3E080DC74F7121849E9FEEAFF121373
:1013D000BC800E8A828B83A3A3A3A3A3E4936E6035
:1013E000147A007902121335EA7001EB6007EE708F
:1013F000E2EF1F70EC7F02021A0B74F7121849EA31
:10140000FEEBFF7A001213C57A027904121335EA53
:101410007001EB60178A828B83A3A3E4936E70E85C
:101420008A828B83A3A3A3E4936F70DC80C774F3D9
:1014300012184974F8121BA47A007B00E9121A43AF
:10144000000320154C1453145A1461147AE87B05D8
:101450000215207AEC7B050215207A107B06021516
:1014600020900634E0600302151C7508088A09788C
:1014700008121BBE7402121C63AC82AD837AE87B37
:1014800007797F12152A7402121B45750A02850A14
:101490008285820874FE2508FC74FF3400FDECF898
:1014A000EDF97A0A7B00121767EA7001EB7029ECFC
:1014B000F8EDF97A057B00121767E8F50C851882BC
:1014C000851983E582250CF582E5833400F583E0F8
:1014D000FAA3E0F9EAFEE9FFEEF8EFF97A0A7B00F9
:1014E00012176FEA2430C0E0E5082434F582E434B2
:1014F00006F583D0E0F0EEF8EFF97A0A7B001217D8
:101500006F88088909AE08AF09050A050AE50A943B
:101510002A500302148E742A900634F07A347B0623
:101520007408121B457F06021A0B74F512184989BC
:1015300008740B121C63E0FEA3E0FF740F5508F55E
:101540000A750B00740B780A121BF72AF874803B9B
:10155000F9E428E50B39F9E5C7F509A2AFE492E013
:10156000F50AC2AFE508C4540FC0E074F855C7FAD5
:10157000D0E04AF5C7801C88828983E08C828D8305
:10158000F088828983A3A882A9838C828D83A3ACEF
:1015900082AD83EEFAEFFB74FF2A1E74FF3BFFEA75
:1015A0007001EB70D28509C7E50AA2E092AF7F0413
:1015B000021A0B74F71218497409121C63E0F5083B
:1015C000A3E0F509ED900388F0EC900389F07462D4
:1015D00090038AF0747390038BF090038CE0541F97
:1015E000F0E508333354FC90038DF074067808124C
:1015F0001C29E50890038CF0741290038EF074425D
:1016000090038FF075D1FE75D601EA906271F0EB10
:10161000906272F0906270E0D2E1F0E0A2E740FBED
:101620007F02021A0BC082C083E9C333906272F05A
:10163000906270E0D2E0F0D083D0822274F712186A
:10164000497523007524007525008A268B27EA90AA
:10165000620BF08A088B0974047808121C29E508CB
:10166000906207F08A088B0974097808121C29E532
:1016700008543E906209F0758B00C2E843AC2043E9
:101680009A027F02021A0B74F7121849E59DA2E62E
:1016900050FA906206E0FAA2E25035A826E890627D
:1016A0000BF0F50885270974047808121C29E50851
:1016B000906207F085260885270974097808121CAE
:1016C00029E508543E906209F0906201E0D2E0F012
:1016D0007823EA46F6906202E0F508750900740482
:1016E0007808121BF77823E50846F608E50946F660
:1016F000906204E0F50875090074097808121BF778
:10170000782308E50946F6EAA2E05003752501743E
:10171000065A6003752500E58BA2E55006758BDF40
:10172000752500121848758B00C2E8021682C3E4C2
:1017300098F8E499F912176F8026C3E49AFAE49BAB
:10174000FBE920E7E912176FE498F8E499F922C35E
:10175000E498F8E499F912176FE498F8E499F9C35A
:10176000E49AFAE49BFB22EB20E7CFE920E7E0B91B
:101770000010BB0008E88AF084F8AAF022E4FBC855
:10178000FA22EB70227B10C833C8C933C933500723
:10179000C39AC3DBF280069A50012ADBEAC833F40D
:1017A000C8C933F4C9FA2275F008E4C833C8C9338C
:1017B000C933C99AC99B5004C92AC93BD5F0ECFB6F
:1017C000C833F4C8E4C9FA22C082C0839005B7E0E8
:1017D000FA74226A700A9005A4E0701C74028017E3
:1017E00074206A700D9005A4E0700D121824740224
:1017F000800274049005A4F08046C082C0839005E6
:10180000B7E0642170169005A4E0701612182490B9
:1018100005B47407F0A3E4F0740180027404900529
:10182000A4F0801C9005B17494F0A37405F0A3E4B7
:10183000F02280028000C082C08374049005A4F06E
:10184000D083D0822280EF22222518C582C0E0E515
:101850001934FFC583C0E0E518C3958224F9F8E484
:10186000C5A8858319858218C5A8E8CEF0A3E52010
:10187000F0A37808E608F0A3DEFAEFF0A3E58124F0
:10188000FBF8E608F0A3E608F0A30808E608F0A3D2
:10189000E608F0A315811581D0E0FED0E0F81581AF
:1018A0001581E8C0E0EEC0E022C0D02518C582C096
:1018B000E0E51934FFC583C0E0E518C3958224F341
:1018C00010AF088583198582188008858319858261
:1018D00018D2AFC8F0A3E9F0A3EAF0A3EBF0A37924
:1018E00008E709F0A3D8FAECF0A3EDF0A3EEF0A31B
:1018F000EFF0A3D0E0F0A3D0E0F0A3D0E0F0A3E5B8
:1019000020F0A3E5F0F0A322120100020200002063
:101910005104A81609000102030109024300020153
:1019200000801909040000010202010005240010D2
:101930000104240202052406000105240100010718
:1019400005820340004009040100020A000000076C
:10195000058402400001070504024000012319002C
:101960000046190000121C72B900030219B5E4798F
:10197000217807B800028004F709D8FCE49003023C
:1019800078BF79038002F0A3D8FCD9FA9005C0AAE9
:1019900082AB8390008E78AB79018015E493A3AC81
:1019A00082AD838A828B83F0A3AA82AB838C828DE3
:1019B00083D8E9D9E7121149121C6D85198385185E
:1019C00082E0C0E0A3E0F9A3E0FAA3E0FBA378087B
:1019D000E0F608A3DFFAE0FCA3E0FDA3E0FEA3E04D
:1019E000FFA3E0C0E0A3E0C0E0A3E0F5D0A3E0F5F2
:1019F00020A3E0A3F5F0E4C5A8858319858218C566
:101A0000A8D082D083D0E0F8D0E032851983851841
:101A100082E0A3FEE0A3F5207808E0A3F608DFFA51
:101A2000E0A3FFE0A3C0E0E0A3C0E0E0A3C0E0E0EB
:101A3000A3C0E0E4C5A8858218858319C5A8D08312
:101A4000D08222D083D082C5F0E493A3C5F0C395A1
:101A5000F0F5F0E493A3C395F04005E5F0048001B0
:101A6000E475F002A42582F582E5F03583F583E480
:101A700093A3C0E0E493C0E02274038000CCC0E0F4
:101A8000EDC0E0E518C39CCCAD1950011D10AF06A8
:101A90008C188D1980068C188D19D2AF121AD0D0DF
:101AA000E0FDD0E0FC22D083D082CCC0E0E493A360
:101AB0006006121AF11470FAE493A36006121B8EEA
:101AC0001470FAD0E0FCE493A3C0E0E493C0E022F9
:101AD000CAC0E0E0A3C582CCC582C583CDC583F072
:101AE000A3C582CCC582C583CDC583DAE6D0E0CA62
:101AF00022C0E0E493A3D39C5010E493A3C39C4082
:101B00000AD0E0D0E0D0E0021AC3A3A3A3D0E02221
:101B10002518F58210AF08F518400215198008F550
:101B20001840021519D2AF85198322BB0102E722A2
:101B3000C082C08389828A83BB0003E08002E49371
:101B4000D083D08222C0D0251810AF08F5185002DB
:101B500005198008F51850020519D2AFD0D02260BF
:101B600016080808C6C313C618C613C618C613C677
:101B700018C613C6D5E0EA22BB000EC082C0838A15
:101B8000838982F0D083D08222BB0101F722C0E09A
:101B9000E493A36C7009D0E0D0E0D0E0021AC3A3B4
:101BA000A3D0E022251810AF08F5184002151980BF
:101BB00008F51840021519D2AF227403800474028C
:101BC0008000C0E0F404121B10D0E0121C5622E08A
:101BD00066701008A3E066700A08A3E06670040847
:101BE000A3E06622E026F608A3E036F608A3E03676
:101BF000F608A3E036F622700422600D18C6C3333F
:101C0000C608C633C6D5E0F41822C3E7960809E72C
:101C1000960809E7960809E79622E6F008A3E6F099
:101C200008A3E6F008A3E6F022600C08C6C313C6BA
:101C300018C613C6D5E0F42275D00075814075181A
:101C400002751903021965E0F608A3E0F608A3E09F
:101C5000F608A3E0F622CAC0E0E6F0A308DAFAD05C
:101C6000E0FA222518F582E43519F58322000000F8
:101C700080FB790122E473FFFFFFFFFFFFFFFFFFFF
:101C8000FFFFFFFFFFFFFFFFFFFFFFFFFFFFFFFF64
:101C9000FFFFFFFFFFFFFFFFFFFFFFFFFFFFFFFF54
:101CA000FFFFFFFFFFFFFFFFFFFFFFFFFFFFFFFF44
:101CB000FFFFFFFFFFFFFFFFFFFFFFFFFFFFFFFF34
:0400000500001C38A3
:00000001FF
