:020000040000FA
:10000000020DEB022003FFFFFFFFFF02200BFFFFAB
:10001000FFFFFF020522FFFFFFFFFF02201BFFFF84
:10002000FFFFFF022023FFFFFFFFFF02202BFFFF48
:10003000FFFFFF022033FFFFFFFFFF02057DFFFFF1
:10004000FFFFFF022043FFFFFFFFFF02204BFFFFE8
:10005000FFFFFF022053FFFFFFFFFF02205BFFFFB8
:10006000FFFFFF022063FFFFFFFFFF02206BFFFF88
:10007000FFFFFF022073FFFFFFFFFF02207BFFFF58
:10008000FFFFFF022083FFFFFFFFFF02208B002006
:10009000000090200000932000000100000000C834
:1000A0000300380000000000260000000000FFFFF1
:1000B000FFFF0000040074F7120B487800790080FD
:1000C0001BE508120573E08A828B83F090041212FC
:1000D00002044005E4900412F01201FB900412E0C7
:1000E000F508900413E065086007C3E89CE99D40AB
:1000F000D0E8FAE9FB7F02020C9F74F8120B4890DB
:100100000497E0FE8E82A882900496E0FEE8C39EEB
:10011000E0500E1202C17001E9700B780079008086
:10012000141202D250F57A007B008038E004F043CC
:100130009A041201FBC3E89CE99D50248A828B83B8
:10014000E0C0E0900497E01205D4D0E01202EDE4A4
:10015000900498F0900497E0C3947F40CFE480CE61
:10016000E8FAE9FB7F01020C9F74F7120B48780054
:10017000790090051BE0705590051CE0704F75F9F3
:1001800000C28FC284A28340FCA28F4004A283508D
:10019000F8E5F9C28FA2835004D2848030C0E0E039
:1001A0001201F1D0E0F090051C1202E640DBE4F011
:1001B00080D7E5081201F1E08A828B83F090051B5D
:1001C0001202044005E490051BF01201FB90051B90
:1001D000E0F50890051CE065086007C3E89CE99D10
:1001E00040D0E87001E97006E4F090051BF00200D1
:1001F000F1249BF582E43404F58322E8240108E924
:100200003400F922E0041202F1C394802274F8123F
:100210000B4890059EE0FE8E82A88290059DE0FE30
:10022000E8C39EE0500A1202C17001E9700D80051A
:100230001202D24006EC7001ED70067A007B00805D
:100240007D8A828B83E0F5F9A3AA82AB837801795A
:10025000008006E004F01201FBC3E89CE99D501EFB
:100260008A828B83E0C0E090059E1202FCD0E012EF
:1002700002ED90059EE0C3947F40D8E480D7C28F02
:10028000A28340FCC284A28F4004A28350F8900550
:100290009D1202FCE0F5F9C28F90059DE0FA9005F1
:1002A0009EE06A90059D70051202FC80051202E630
:1002B0004002E4F0A28350CED284E8FAE9FB0201C6
:1002C00064C398F8E49400F974FF281874FF39F9AE
:1002D000E822C398F8E49400F9747F28F8E439F927
:1002E000C3E89CE99D22E004F0C39480221202F14D
:1002F00022F08A828B83A3AA82AB8322E0241DF59D
:1003000082E43405F5832274FF120D5B1203E712B9
:1003100006DCE970030203C47E00900390E06401F0
:10032000700DC2847401900391F09005B38005D2E2
:10033000AF9005B77808120DDC7C017D008518822E
:10034000851983AA82AB831204DEEA7001EB601286
:10035000E064F8602CE0640770089005BB78081230
:100360000DDC85080C85090D850A0E850B0F90059F
:10037000BF7808120D999005BB780C120D7170B9F9
:100380000E900390E064017009D284E4900391F030
:100390008002C2AFEE602D900390E06401700C7596
:1003A000F800C2AB539AF7D2EA800C758600C2AA55
:1003B000C28B539AFBC2E9022000C2AF75C9AB756C
:1003C000C95B80FE1204A3C2AF75C9AB75C95B805F
:1003D000FE7A1075B60FE5B4A2E750FAE5BBC399F3
:1003E00040F11AEA70ED22C082C083A29250047AD2
:1003F0000080027A8053BEFBE59DA2E650FA0078A9
:10040000F8790100E824FF18E934FFF9E87001E900
:1004100070F18AC6E59E6A70FB43BE047408906260
:1004200070F0794A1203D174F5900001F07403F56D
:10043000D575D488A2A0E492E0900390F064017096
:100440002BD28453F3F753F3EF53FDF743FD1053CF
:100450008FF753F7DF43FC2043F10253F5DF75F8C4
:100460002043F4F0E5F4D2FED2AB803253FF3FE5F7
:10047000FF85FFFF53F1FE43F30CE5F353F2F3E581
:10048000F275868075C480900499E4F0A3F075C27B
:10049000D875C50B75C402438640D2AAD2E9D08371
:1004A000D0822274F5120B48794E1203D19003903A
:1004B000E07002D2AF1205DEE960FAE0701B900531
:1004C000C37808120DDC009005BF7808120D9990D2
:1004D00005BB7808120D7170ED7F04020C9FC0827D
:1004E000C083900390E070051200B6801E900391C7
:1004F000E06015A28F500DE5F98A828B83F07A01B6
:100500007B0080077A0080F81201698091C082C068
:1005100083900390E070051200FA800312020D022E
:10052000049EC0E074F2120BA8900001E064CD704C
:10053000051220138038E064F57032E5C1C0E09008
:100540000413E0120573D0E0F0900412E0FA900476
:1005500013E06A7006E595900415F09004131202FA
:10056000E64002E4F074C6900414F08001007F01BC
:10057000020C072492F582E43403F58322C0E07470
:10058000F1120BA8900001E064CD700512203B80B1
:100590003EE064F57038900496E0FA900497E06AC3
:1005A000700B539AFB7401900498F08022C2E9907A
:1005B0000496E0F50874012508F0E5081205D4E07A
:1005C000F5C1900496E0C394804004E480DC007F91
:1005D00002020C072416F582E43404F5832274F732
:1005E000120B4874FF120D5B7E008033900384E091
:1005F000FA851882851983E06A700D900382E064A1
:100600004D7005120835E9FEE4900385F0900387EC
:10061000F0851882851983E0FA900384E06AF07C03
:10062000017D00851882851983AA82AB831204DEBE
:10063000EA7001EB70030206D0E0C0E0900387E0AF
:10064000F8900385E028F8E434001209CAD0E0F0FD
:10065000900387E0120CD700051106670676069412
:1006600006A406BA06EC05851882851983E064FEA7
:10067000709F74018097E4900384F0851882851937
:1006800083E0900386F0C394804004E402060D7476
:100690000202060D851882851983E0900382F074AA
:1006A0000302060D851882851983E0900383F0907C
:1006B0000386E06016740402060D900385E004F0E2
:1006C000FA900386E06A6003020611740502060DC3
:1006D000EEF97401120D287F02020C9F74ED120BCB
:1006E0004874FB120D5B7508047509007808120D3B
:1006F000AC7402120E071209D6120D28851882E07A
:1007000064FF7004A3E064FF600D8518828519837F
:10071000E07002A3E070030208291209E6120E0736
:10072000E0687003A3E06970030207F875080090A1
:10073000059F7810120DDC800A9005A37810120D29
:1007400071604D750A01750B00780A120DAC7406C4
:10075000120E07AC82AD8385100A85110B74FF550C
:100760000AFA7407550BFB8A0C85110D85120E854C
:10077000130F740B780C120D42A90C1209E0120D24
:1007800028E0F9AA08AB091209F48A088B09800845
:100790009005A77810120DDC9005AB7810120D991A
:1007A0009005AF780C120DDC780C7910120DBD405D
:1007B0008879001209F479001209F47402120E0704
:1007C000EAF0A3EBF07508017509007808120DAC8A
:1007D0007402120E07AC82AD837A247B08120ABF22
:1007E0007402120D287508047808120DAC740212F8
:1007F0000E071209D6120D281209E6120E07E0683C
:100800007003A3E0697022851882851983E064FF74
:100810007004A3E064FF6011851882851983E0707D
:1008200002A3E060047901800279007405120D28AA
:100830007F0C020C9F74F3120B4874FC120D5B903A
:100840000306E0FA900307E0F9EAF8E428FE7408EA
:1008500039FF750A017509007508008E0C8F0D743B
:1008600009780C120DCDA90C74FF5EF50C74015FB4
:10087000F50D900383E0120CD701026E098308ABDB
:1008800008ED08EA7002E50D7003120B31750C10CB
:10089000750D00780C120DAC7C087D03EEFAEFFBB1
:1008A000120ABF7402120D2802096EE9C39479403E
:1008B0000675090102096E750A40750B00780A1267
:1008C0000DAC7C097D037402780C120D86AA0CAB6A
:1008D0000D1209E0120D28900307E0900308F09034
:1008E0000306E0900307F0750A4302096E750C04D5
:1008F000750D00780C120DAC7402120E071209D699
:10090000120D287402120E07E0F8A3E0F985188290
:10091000851983E0687003A3E069603B1209E61261
:100920000E07E8F0A3E9F0750C01780C120DAC7419
:1009300002120E07AC82AD837A247B08120ABF74C0
:1009400002120D28750C04780C120DAC7402120EF4
:10095000071209D6120D281209E6120E07E0687078
:1009600003A3E0697005750801800375090790030A
:1009700005E0D2E7F0E509900306F0E50A900303ED
:10098000F0744D650AF5097404250AFB7A038004A6
:10099000E062090AEAF83395E01209CA8B0AC3E853
:1009A000950AE99400A2D265D03340E4E509F074D9
:1009B000012AFC3395E0FD7A027B0312050DA9089C
:1009C0007404120D287F06020C9FF9E82402F582B8
:1009D000E93403F58322AC82AD837A907B007904FD
:1009E000120A36740222851882851983E0F8A3E082
:1009F000F9740222EEC0E07E0874805BFDE47001B1
:100A0000ED6004D2F08002C2F0A2F0E492E0FCEAD1
:100A1000C333FAEB33FBE9A2E7500474014AFAEC62
:100A2000600874216AFA74106BFBE9C333F91EEE97
:100A300070C7D0E0FE2274F5120B488908740B12BF
:100A40000E07E0FEA3E0FF740F5508F50A750B00D2
:100A5000740B780A120D862AF874803BF9E428E5B5
:100A60000B39F9E5C7F509A2AFE492E0F50AC2AF88
:100A7000E508C4540FC0E074F855C7FAD0E04AF551
:100A8000C7801C88828983E08C828D83F08882896C
:100A900083A3A882A9838C828D83A3AC82AD83EECD
:100AA000FAEFFB74FF2A1E74FF3BFFEA7001EB7044
:100AB000D28509C7E50AA2E092AF7F04020C9F74B9
:100AC000F7120B487409120E07E0F508A3E0F509C8
:100AD000ED900388F0EC900389F0746290038AF043
:100AE000747390038BF090038CE0541FF0E508338F
:100AF0003354FC90038DF074067808120DCDE50890
:100B000090038CF0741290038EF0744290038FF077
:100B100075D1FE75D601EA906271F0EB906272F0C9
:100B2000906270E0D2E1F0E0A2E740FB7F02020CAD
:100B30009FC082C083E9C333906272F0906270E01C
:100B4000D2E0F0D083D082222518C582C0E0E5191A
:100B500034FFC583C0E0E518C3958224F9F8E4C5E5
:100B6000A8858319858218C5A8E8CEF0A3E520F0F2
:100B7000A37808E608F0A3DEFAEFF0A3E58124FBF2
:100B8000F8E608F0A3E608F0A30808E608F0A3E6F4
:100B900008F0A315811581D0E0FED0E0F81581158D
:100BA00081E8C0E0EEC0E022C0D02518C582C0E0D8
:100BB000E51934FFC583C0E0E518C3958224F3101E
:100BC000AF08858319858218800885831985821866
:100BD000D2AFC8F0A3E9F0A3EAF0A3EBF0A3790841
:100BE000E709F0A3D8FAECF0A3EDF0A3EEF0A3EF41
:100BF000F0A3D0E0F0A3D0E0F0A3D0E0F0A3E52094
:100C0000F0A3E5F0F0A322851983851882E0C0E007
:100C1000A3E0F9A3E0FAA3E0FBA37808E0F608A3B9
:100C2000DFFAE0FCA3E0FDA3E0FEA3E0FFA3E0C049
:100C3000E0A3E0C0E0A3E0F5D0A3E0F520A3E0A3AB
:100C4000F5F0E4C5A8858319858218C5A8D082D09F
:100C500083D0E0F8D0E032120E16B90003020C99EE
:100C6000E4900302789E79038002F0A3D8FCD9FABD
:100C700090059FAA82AB8390008E78297901801518
:100C8000E493A3AC82AD838A828B83F0A3AA82AB68
:100C9000838C828D83D8E9D9E7120307120E118560
:100CA0001983851882E0A3FEE0A3F5207808E0A36D
:100CB000F608DFFAE0A3FFE0A3C0E0E0A3C0E0E0B5
:100CC000A3C0E0E0A3C0E0E4C5A88582188583192D
:100CD000C5A8D083D08222D083D082C5F0E493A36C
:100CE000C5F0C395F0F5F0E493A3C395F04005E596
:100CF000F0048001E475F002A42582F582E5F03568
:100D000083F583E493A3C0E0E493C0E0222518F5C3
:100D10008210AF08F518400215198008F518400236
:100D20001519D2AF85198322C0D0251810AF08F548
:100D300018500205198008F51850020519D2AFD0D5
:100D4000D0226016080808C6C313C618C613C618F2
:100D5000C613C618C613C6D5E0EA22251810AF0878
:100D6000F518400215198008F51840021519D2AF80
:100D700022E066701008A3E066700A08A3E06670BF
:100D80000408A3E06622700422600D18C6C333C6AF
:100D900008C633C6D5E0F41822E026F608A3E036EC
:100DA000F608A3E036F608A3E036F62274028000C7
:100DB000C0E0F404120D0DD0E0120DFA22C3E79644
:100DC0000809E7960809E7960809E79622600C08E3
:100DD000C6C313C618C613C6D5E0F422E0F608A3AE
:100DE000E0F608A3E0F608A3E0F62275D0007581CE
:100DF00040751802751903020C57CAC0E0E6F0A34B
:100E000008DAFAD0E0FA222518F582E43519F583DC
:100E10002200000080FB790122FFFFFFFFFFFFFFA0
:100E2000FFFFFFFFFFFFFFFFFFFFFFFFFFFFFFFFD2
:100E3000FFFFFFFFFFFFFFFFFFFFFFFFFFFFFFFFC2
:100E4000FFFFFFFFFFFFFFFFFFFFFFFFFFFFFFFFB2
:100E5000FFFFFFFFFFFFFFFFFFFFFFFFFFFFFFFFA2
:0400000500000DEBFF
:00000001FF
